{
  "_format": "hh-sol-artifact-1",
  "contractName": "MyTest",
  "sourceName": "contracts/MyTest.sol",
  "abi": [
    {
      "inputs": [
        {
          "internalType": "uint256",
          "name": "_unlockedTime",
          "type": "uint256"
        }
      ],
      "stateMutability": "payable",
      "type": "constructor"
    },
    {
      "anonymous": false,
      "inputs": [
        {
          "indexed": false,
          "internalType": "uint256",
          "name": "amount",
          "type": "uint256"
        },
        {
          "indexed": false,
          "internalType": "uint256",
          "name": "when",
          "type": "uint256"
        }
      ],
      "name": "withDraw",
      "type": "event"
    },
    {
      "inputs": [],
      "name": "owner",
      "outputs": [
        {
          "internalType": "address payable",
          "name": "",
          "type": "address"
        }
      ],
      "stateMutability": "view",
      "type": "function"
    },
    {
      "inputs": [],
      "name": "unlockedTime",
      "outputs": [
        {
          "internalType": "uint256",
          "name": "",
          "type": "uint256"
        }
      ],
      "stateMutability": "view",
      "type": "function"
    },
    {
      "inputs": [],
      "name": "withDrawFunds",
      "outputs": [],
      "stateMutability": "nonpayable",
      "type": "function"
    }
  ],
  "bytecode": "0x60806040526040516105fd3803806105fd833981810160405281019061002591906100f0565b804210610067576040517f08c379a000000000000000000000000000000000000000000000000000000000815260040161005e906101a0565b60405180910390fd5b8060008190555033600160006101000a81548173ffffffffffffffffffffffffffffffffffffffff021916908373ffffffffffffffffffffffffffffffffffffffff160217905550506101c0565b600080fd5b6000819050919050565b6100cd816100ba565b81146100d857600080fd5b50565b6000815190506100ea816100c4565b92915050565b600060208284031215610106576101056100b5565b5b6000610114848285016100db565b91505092915050565b600082825260208201905092915050565b7f596f757220756e6c6f636b65642074696d652073686f756c6420626520696e2060008201527f6675747572650000000000000000000000000000000000000000000000000000602082015250565b600061018a60268361011d565b91506101958261012e565b604082019050919050565b600060208201905081810360008301526101b98161017d565b9050919050565b61042e806101cf6000396000f3fe608060405234801561001057600080fd5b50600436106100415760003560e01c80630e5c6f42146100465780638da5cb5b14610064578063b78da38614610082575b600080fd5b61004e61008c565b60405161005b9190610249565b60405180910390f35b61006c610092565b60405161007991906102a5565b60405180910390f35b61008a6100b8565b005b60005481565b600160009054906101000a900473ffffffffffffffffffffffffffffffffffffffff1681565b60005442116100fc576040517f08c379a00000000000000000000000000000000000000000000000000000000081526004016100f390610343565b60405180910390fd5b600160009054906101000a900473ffffffffffffffffffffffffffffffffffffffff1673ffffffffffffffffffffffffffffffffffffffff163373ffffffffffffffffffffffffffffffffffffffff161461018c576040517f08c379a0000000000000000000000000000000000000000000000000000000008152600401610183906103af565b60405180910390fd5b7fd8b6e79a915a08826574478ceba3c71d4208925903b5c429e61ffd51c60183a547426040516101bd9291906103cf565b60405180910390a1600160009054906101000a900473ffffffffffffffffffffffffffffffffffffffff1673ffffffffffffffffffffffffffffffffffffffff166108fc479081150290604051600060405180830381858888f1935050505015801561022d573d6000803e3d6000fd5b50565b6000819050919050565b61024381610230565b82525050565b600060208201905061025e600083018461023a565b92915050565b600073ffffffffffffffffffffffffffffffffffffffff82169050919050565b600061028f82610264565b9050919050565b61029f81610284565b82525050565b60006020820190506102ba6000830184610296565b92915050565b600082825260208201905092915050565b7f5761697420756e74696c6c207468652074696d6520706572696f64206973206360008201527f6f6d706c65746564000000000000000000000000000000000000000000000000602082015250565b600061032d6028836102c0565b9150610338826102d1565b604082019050919050565b6000602082019050818103600083015261035c81610320565b9050919050565b7f596f7520617265206e6f7420746865206f776e65720000000000000000000000600082015250565b60006103996015836102c0565b91506103a482610363565b602082019050919050565b600060208201905081810360008301526103c88161038c565b9050919050565b60006040820190506103e4600083018561023a565b6103f1602083018461023a565b939250505056fea26469706673582212208df63b4d50bcad2658d087bbc92c767bbc4c764b6fde987febf5032a4a4adfaa64736f6c634300081b0033",
  "linkReferences": {},
  "deployedLinkReferences": {}
}